:100000000C945F040C9487040C9487040C9487046C
:100010000C9487040C9487040C9487040C94870434
:100020000C9487040C9487040C9467070C94D907EC
:100030000C9487040C9487040C9487040C94870414
:100040000C9487040C94FF120C9487040C9487047E
:100050000C9487040C9487040C9487040C94161554
:100060000C9487040C9487040C9487040C948704E4
:100070000C9487040C9487040C9487040C948704D4
:100080000C9438120C9487040C9487040C94870405
:100090000C9487040C9487040C9487040C948704B4
:1000A0000C9487040C9487040C94870418101B107C
:1000B0000A100E1012103C103C103C101F102310A0
:1000C00027102D1031103C1037102B113011351125
:1000D0003F11491193119311931153115D11671140
:1000E00071117E1193118611F0F89C8E8783878E93
:1000F0009CF8F00000FEFF0303030303070EFCF867
:100100000000FEFF0303030303070EFCF80000FFDB
:10011000FF00000000000000FFFF0000FEFF8383DF
:10012000838383C7EE7C380000F8FC0E07030303CB
:10013000070EFCF800003F7FE0C08080C0E07F3FFA
:10014000FFFF01010101010101FFFF0000FFFF0CA2
:100150000C0C0C1C3E77E3C100007FFFC0C0C0C088
:10016000C0E0703F1F00001F3F70E0C0C0C0E070E3
:100170003F1F00007FFFC1C1C1C1C1E3773E1C002A
:10018000001F3F70E0C0C0C0E0703F1F00000000D3
:100190000001FFFF01000000D5F08D14A1C881CF40
:1001A000D9F1AF200014021302120215020702084F
:1001B0000204010C010601003C3C3C3C3C3C3C3C44
:1001C000183CBDBDFFFFFF18183CBDBDFFFFFF1869
:1001D0000000183C3C1800000000182424180000FF
:1001E00018FFFF7E3C3C3C1818E781422424241869
:1001F000080B0002020201000904000001020200D3
:100200000005240010010524010101042402060553
:1002100024060001070581031000400904010002C3
:100220000A000000070502024000000705830240A3
:1002300000000403090441726475696E6F204C4C20
:10024000430041726475626F790012010002000080
:1002500000404123360000010102030112010002A7
:10026000EF020140412336000001010203010000BA
:100270000000003E5B4F5B3E3E6B4F6B3E1C3E7C86
:100280003E1C183C7E3C181C577D571C1C5E7F5E34
:100290001C00183C1800FFE7C3E7FF0018241800F3
:1002A000FFE7DBE7FF30483A060E2629792926408A
:1002B0007F050507407F05253F5A3CE73C5A7F3EB6
:1002C0001C1C08081C1C3E7F14227F22145F5F0048
:1002D0005F5F06097F017F006689956A60606060E4
:1002E0006094A2FFA29408047E040810207E2010CF
:1002F00008082A1C08081C2A08081E101010100CD8
:100300001E0C1E0C30383E3830060E3E0E06000025
:1003100000000000005F00000007000700147F14C9
:100320007F14242A7F2A1223130864623649562038
:10033000500008070300001C2241000041221C005D
:100340002A1C7F1C2A08083E08080080703000081C
:1003500008080808000060600020100804023E51F0
:1003600049453E00427F4000724949494621414982
:100370004D331814127F1027454545393C4A4949E9
:100380003141211109073649494936464949291E53
:100390000000140000004034000000081422411442
:1003A00014141414004122140802015909063E4194
:1003B0005D594E7C1211127C7F494949363E4141BC
:1003C00041227F4141413E7F494949417F09090915
:1003D000013E414151737F0808087F00417F410081
:1003E0002040413F017F081422417F404040407F30
:1003F000021C027F7F0408107F3E4141413E7F097D
:100400000909063E4151215E7F09192946264949BD
:10041000493203017F01033F4040403F1F204020FD
:100420001F3F4038403F63140814630304780403FB
:100430006159494D43007F414141020408102000A9
:100440004141417F0402010204404040404000031A
:1004500007080020545478407F28444438384444E6
:100460004428384444287F385454541800087E09DE
:100470000218A4A49C787F0804047800447D4000FE
:100480002040403D007F1028440000417F40007C18
:10049000047804787C080404783844444438FC1810
:1004A00024241818242418FC7C08040408485454F4
:1004B000542404043F44243C4040207C1C20402021
:1004C0001C3C4030403C44281028444C9090907C88
:1004D0004464544C4400083641000000770000009A
:1004E0004136080002010204023C2623263C1EA1DC
:1004F000A161123A4040207A38545455592155553B
:1005000079412154547841215554784020545579EB
:10051000400C1E527212395555555939545454597C
:1005200039555454580000457C410002457D420035
:1005300001457C40F0292429F0F0282528F07C543E
:100540005545002054547C547C0A097F493249495E
:1005500049323248484832324A4848303A414121CB
:100560007A3A42402078009DA0A07D394444443925
:100570003D4040403D3C24FF2424487E4943662BB7
:100580002FFC2F2BFF0929F620C0887E0903205459
:100590005479410000447D413048484A3238404057
:1005A000227A007A0A0A727D0D19317D2629292FB7
:1005B00028262929292630484D40203808080808CF
:1005C00008080808382F10C8ACBA2F102834FA00D1
:1005D000007B000008142A142222142A1408950013
:1005E000220095AA005500AAAA55AA55AA00000003
:1005F000FF00101010FF00141414FF001010FF0073
:10060000FF1010F010F0141414FC001414F700FF85
:100610000000FF00FF1414F404FC141417101F1042
:10062000101F101F1414141F00101010F0000000F1
:10063000001F101010101F10101010F010000000FC
:10064000FF101010101010101010FF10000000FF0D
:10065000140000FF00FF00001F10170000FC04F44E
:1006600014141710171414F404F40000FF00F71406
:10067000141414141414F700F7141414171410108D
:100680001F101F141414F4141010F010F000001FA9
:10069000101F0000001F14000000FC140000F010E8
:1006A000F01010FF10FF141414FF141010101F008E
:1006B000000000F010FFFFFFFFFFF0F0F0F0F0FF90
:1006C000FFFF0000000000FFFF0F0F0F0F0F384467
:1006D0004438447C2A2A3E147E02020606027E0228
:1006E0007E0263554941633844443C04407E201EE9
:1006F0002006027E020299A5E7A5991C2A492A1C18
:100700004C7201724C304A4D4D303048784830BC04
:10071000625A463D3E494949007E0101017E2A2A2E
:100720002A2A2A44445F444440514A444040444AAF
:1007300051400000FF0103E080FF000008086B6BE0
:10074000083612362436060F090F06000018180066
:1007500000001010003040FF0101001F01011E00C9
:10076000191D1712003C3C3C3C0000000000060133
:100770001501260137014A015D01720188019F01BF
:10078000B801D201EE010B022A024B026E02930263
:10079000BA02E40210033F037003A403DC0317044E
:1007A00055049704DD0427057505C80520067D0658
:1007B000E0064907B8072D08A9082D09B9094D0A0F
:1007C000EA0A900B400CFA0CC00D910E6F0F5A10F4
:1007D00053115B1272139A14D41520178018F5194F
:1007E000801B231DDE1EB420A622B524E426342956
:1007F000A72B402E0031EA330037453ABC3D684113
:100800004C456B49C84D68524F57805C00621011CF
:100810001213151617181A1C1D1F21232527292C02
:100820002E3134373A3E4145494E52575C62686E2C
:10083000757B838B939CA5AFB9C4D0DCE9F700002E
:100840000000240027002A002D00300000000002D4
:1008500000090F0000030401000C0000000000006C
:100860000000000000000000000000040802011069
:1008700040804010204080408008020401804020D9
:1008800010020110801020404020000000002500D0
:1008900028002B002E003100040404040403040586
:1008A000020202020403020202020606060606060D
:1008B000040402020204040301006F1E581E1124E6
:1008C0001FBECFEFDAE0DEBFCDBF29E0AAEDB2E078
:1008D00001C01D92AC3AB207E1F712E0A0E0B1E02E
:1008E000EAE7F6E402C005900D92AA3DB107D9F7F8
:1008F00014E0CEE5D4E004C02197FE010E94F01E72
:10090000CD35D107C9F70E9460150C9430230C94A3
:1009100000004091EA025091EB022091E8023091F0
:10092000E90242175307B4F49091E8009570E1F39F
:100930009091E80092FD19C08093F1008091EA0245
:100940009091EB0201968F739927892B19F48EEF02
:100950008093E8008091EA029091EB0201969093D7
:10096000EB028093EA0281E0089580E00895CF923F
:10097000DF92EF92FF920F931F93CF93DF931F921B
:10098000CDB7DEB7182F062FE42E862F880F8E5F87
:1009900099830E94890483E00E948904F12EC12E6C
:1009A0009981D92E8C2D8F19801798F4F601E7FEC6
:1009B00002C0849101C080810E948904182F80E0C8
:1009C0000E9489048123FFEFCF1ADF0A8111EACF49
:1009D00001C081E00F90DF91CF911F910F91FF90A7
:1009E000EF90DF90CF900895DF92EF92FF920F93F8
:1009F0001F93CF93DF93D82E8A017B01E40EF51E5F
:100A0000EB01CE15DF0571F0D7FE03C0FE01849126
:100A100001C088810E94890421968111F2CF8FEF55
:100A20009FEF01C0C801DF91CF911F910F91FF90FF
:100A3000EF90DF900895615030F02091F100FC01BB
:100A400020830196F8CF289884E68093F4020895D5
:100A5000CF92DF92EF92FF920F931F93CF93DF938A
:100A60006C017A018B01C0E0D0E0CE15DF0589F082
:100A7000D8016D918D01D601ED91FC910190F0812D
:100A8000E02DC6010995892B11F47E0102C0219643
:100A9000ECCFC701DF91CF911F910F91FF90EF90A5
:100AA000DF90CF900895CF93DF931F92CDB7DEB73D
:100AB0006983DC01ED91FC910280F381E02D41E03E
:100AC00050E0BE016F5F7F4F09950F90DF91CF918E
:100AD000089583E08093E9008091F200882319F063
:100AE0008AE38093E8000895FC018485958597FD4D
:100AF0000BC09FB7F89482E08093E9008091F200E8
:100B00009FBF90E0019608959FB7F89482E080938C
:100B1000E9008091F2009FBF90E0089524E130E069
:100B2000B9010E94DC1E8530910524F491958195D0
:100B3000910908958A3091051CF08F30910514F4C5
:100B40000A970895A901481B590BCA0108950895F1
:100B50000F931F93CF93DF9324E331E0FC013183A4
:100B600020838C01015F1F4F79F0EC01CD5ADF4FDC
:100B7000C017D10749F06197E881F9810190F081B0
:100B8000E02DCE010995F4CFDF91CF911F910F9108
:100B900008950F931F93CF93DF9324E231E0FC017C
:100BA000318320838C01075E1F4F79F0EC01C45B19
:100BB000DF4FC017D10749F06197E881F9810190B3
:100BC000F081E02DCE010995F4CFDF91CF911F91F7
:100BD0000F91089508950E9421220F931F93CF93A0
:100BE000DF931F92CDB7DEB782E0898342E450E005
:100BF00060EF71E080E80E94F4040E94A314DC011D
:100C000012960D911C9113970115110569F0D801E9
:100C1000ED91FC910280F381E02DBE016F5F7F4F6B
:100C2000C801099597FF07C089810F90DF91CF9187
:100C30001F910F910895F80100851185E5CF8F92DE
:100C40009F92AF92BF92CF92DF92EF92FF920F935B
:100C50001F93CF93DF935C016B018A018091110197
:100C6000882309F45EC08091F502882309F459C0F5
:100C70008091DB0280FF05C08091E000826080935C
:100C8000E000E8018AEFF82E93E0E92E2FE3822EB0
:100C90003AE3932E209709F43DC08FB7F894E09281
:100CA000E9009091E80095FF06C09091F200282D90
:100CB000291B922F01C090E08FBF91110AC0FA94B6
:100CC000FF2079F161E070E080E090E00E94DC14A8
:100CD000E1CF292F30E0C217D3070CF49C2F8FB738
:100CE000F894E092E9002091E80025FF11C0292F37
:100CF00030E0C21BD30BF601915020F0419140939C
:100D0000F100FACFC20ED31E9091E80095FF13C0F8
:100D10008FBFC0CF5D9884E68093EC021016110659
:100D200044F081E090E0F5019383828380E090E0DD
:100D300005C0C80103C09092E800EACFDF91CF91CF
:100D40001F910F91FF90EF90DF90CF90BF90AF90E9
:100D50009F908F900895CF93DF931F92CDB7DEB70A
:100D6000FC018485958597FD05C02FEF3FEF358702
:100D700024870BC0CE0101960E94C30F019719F47E
:100D8000898190E002C08FEF9FEF0F90DF91CF91AC
:100D900008950F931F93CF93DF931F92CDB7DEB7C4
:100DA0008C01FC018485958597FF0EC0CE010196CC
:100DB0000E94C30F019719F4298130E002C02FEF80
:100DC0003FEFF80135872487F801848595850F90DA
:100DD000DF91CF911F910F91089569E070E00E941B
:100DE000DC1EBC01990F880B990B0E94A01F0E946A
:100DF0009F20905820E030E040E05FE30E942C20EC
:100E00000E94681FCB01089569E070E00E94DC1E1B
:100E1000BC01990F880B990B0E94A01F0E949F2074
:100E200020E030E040E05FE30E942C200E94681F39
:100E3000CB01089561E0452B09F460E082E090E089
:100E40000E94BF2281E00895642F81E090E00E941B
:100E5000BF2281E008950C9489210C948921CF93BD
:100E6000DF93EC010E94A805CE01DF91CF910C9495
:100E70008921CF93DF93EC010E94C905CE01DF9158
:100E8000CF910C948921CF93DF9300D000D0CDB7C0
:100E9000DEB7611571058105910579F09B01AC0103
:100EA00069833A834B835C830E94742229813A814F
:100EB0004B815C810E94CD2203C060E070E0CB01D9
:100EC0000F900F900F900F90DF91CF9108951F9288
:100ED0000F920FB60F9211248F939F938091E10090
:100EE0009091E100937F9093E10083FF0FC01092F7
:100EF000E90091E09093EB001092EC0092E3909364
:100F0000ED001092F50298E09093F00082FF20C06F
:100F100093E09093E9009091F200992319F09AE3FD
:100F20009093E8009091EC02992339F09091EC02B3
:100F300091509093EC02992389F19091F4029923B6
:100F400039F09091F40291509093F402992341F179
:100F500084FF10C08091E2008E7E81608093E20069
:100F60008091E1008F7E8093E1008091DB028E7E94
:100F7000806111C080FF16C08091E2008E7E80618A
:100F80008093E2008091E1008E7E8093E100809169
:100F9000DB028E7E81608093DB0204C05D9ACDCF40
:100FA000289AD6CF9F918F910F900FBE0F901F90D0
:100FB00018951F920F920FB60F921124CF92DF92C5
:100FC000EF92FF920F931F932F933F934F935F9353
:100FD0006F937F938F939F93AF93BF93EF93FF9301
:100FE000CF93DF93CDB7DEB76C97DEBFCDBF109246
:100FF000E9008091E80083FFFAC168E0CE014596E0
:101000000E941B0582EF8093E8008D8987FF05C051
:101010009091E80090FFFCCF03C09EEF9093E80012
:10102000982F907609F0C6C09E892F89188D91114E
:101030000CC0803829F48091DC028093F10002C05A
:101040001092F1001092F10047C1422F50E0512B55
:10105000913051F4811140C14130510509F03CC13A
:101060008091DC028D7F0BC0933061F4811134C11B
:101070004130510509F030C18091DC0282608093DB
:10108000DC022AC1953041F48091E80080FFFCCF5A
:1010900020682093E30020C1963009F05FC0EB8CFC
:1010A000FC8C1092E9001092EB021092EA021230CE
:1010B00091F51092E9021092E8020E94ED0599E084
:1010C000BE016F5F7F4FDB01E92F1D92EA95E9F7C3
:1010D00099831A8391E09E8390EA98879AEF998783
:1010E0002091EA023091EB02275F3F4F3C832B8334
:1010F0008D831092E9001092EB021092EA02F092B6
:10110000E902E092E80249E050E080E00E94F40445
:101110000E94ED05E1C0F092E902E092E8020E942F
:10112000A314DC011296ED90FC901397E114F104E6
:1011300009F4C0C0D701ED91FC910480F581E02D48
:10114000BE016B5E7F4FC7010995009719F00CF047
:10115000C3C0C6C0F701E084F184E8CF973009F43A
:10116000BFC0983021F481E08093F100B5C0993080
:1011700009F0B2C0837009F0B3C0E9E3F1E081E0A7
:1011800021E036E39081992361F08093E900209378
:10119000EB0091919093EC003093ED008F5F8730DE
:1011A00089F78EE78093EA001092EA008F89809396
:1011B000F50292C08B8D9C8D1092E9001092EB028B
:1011C0001092EA029093E9028093E802898D8111DE
:1011D00056C08E899D89913A59F4813209F080C0B8
:1011E00047E050E06AE071E080E00E94F40474C0DF
:1011F000913209F075C0833289F4888D90E0982F80
:1012000088272F89822BA0E0B0E08093060190937D
:101210000701A0930801B09309015EC0803269F410
:101220008091E80082FFFCCF67E08AE091E00E94B5
:101230001B058BEF8093E80006C0823209F04CC09A
:101240008F89809311018091DA02882319F0EEEFE3
:10125000FAE002C0E0E0F8E080910A0190910B0111
:10126000A0910C01B0910D01803B9440A105B10506
:1012700009F088C08091110180FFA0C083C00E9446
:10128000A314DC0112960D911C9113970115110501
:1012900039F1D801ED91FC910190F081E02DBE0172
:1012A0006B5E7F4FC8010995811116C0F80100855A
:1012B0001185ECCF1130C1F0133091F48F89882360
:1012C00009F455C08230E9F440E867E082E492E036
:1012D0000E94B704882321F08EEF8093E80087C036
:1012E00081E28093EB0083C08B8D9C8D089711F475
:1012F0001093E7028091E702811136C06AE472E040
:1013000038C0813029F440E86BE086E392E0E0CF1A
:10131000833031F70E94A314DC011296ED90FC900B
:1013200013978E010F5F1F4F6801E114F10479F0EC
:10133000D701ED91FC910680F781E02DB801C7013E
:101340000995080F111DF701E084F184EECFD80153
:101350001C92F60101900020E9F73197BF016C194A
:101360007D0940E0C601B4CF6CE572E002C062E3E3
:1013700072E06115710509F4B3CFFB01449150E0AF
:1013800080E833CF0FB6F894A8958091600088610B
:1013900080936000109260000FBEA895EE3F2AE097
:1013A000F20739F08091FE0A9091FF0A91838083C1
:1013B00093CF1092FF0A1092FE0A8ECFEE3F8AE082
:1013C000F80731F0808191819093FF0A8093FE0AA3
:1013D00087E797E7918380839BE088E10FB6F894D5
:1013E000A895809360000FBE9093600075CF6C96B7
:1013F0000FB6F894DEBF0FBECDBFDF91CF91FF9146
:10140000EF91BF91AF919F918F917F916F915F917C
:101410004F913F912F911F910F91FF90EF90DF908F
:10142000CF900F900FBE0F901F901895611571050A
:1014300079F0FB0101900020E9F73197AF01461BDD
:10144000570BDC01ED91FC910280F381E02D0994B2
:1014500080E090E00895FC018091690590916A0513
:10146000638574850E94C81E892B81F42381348191
:1014700087819085820F931F948383832581368192
:1014800081859285820F931F9683858383819481C2
:1014900007968738910530F48581968107968734C1
:1014A000910508F012820895AF92BF92CF92DF9219
:1014B000EF92FF920F931F93CF93DF93FC01E21BF8
:1014C000F30B38970CF055C0281B390B2830310529
:1014D0000CF04FC0CB01801B910B08970CF049C05A
:1014E000061B170B083011050CF043C037FF05C071
:1014F00066277727621B730B02C060E070E080E014
:1015000090E0CC27DD27C21BD30BA8E0B0E0CC24B1
:10151000DD24C01AD10AF90137FDFE015D01AE1AC2
:10152000BF0A8A159B052CF5F90137FF02C0E0E0E0
:10153000F0E0E80FF91FE40FF51FB490FC01E60F8F
:10154000F71FEE0DFF1DE4911016110634F4002E66
:1015500001C0EE0F0A94EAF708C00115110529F041
:101560000C2C01C0BB0C0A94EAF7EB2121F4019684
:10157000D2CF80E001C081E0DF91CF911F910F9128
:10158000FF90EF90DF90CF90BF90AF9008952F9293
:101590003F924F925F926F927F928F929F92AF9203
:1015A000BF92CF92DF92EF92FF920F931F93CF9350
:1015B000DF9300D000D0CDB7DEB76C017C836B83A6
:1015C0003A012701CB01875E9B4F9A8389837B0178
:1015D0009CEEE91A9BEFF90A5B01EAEEAE1AEBEF1B
:1015E000BE0A4B01F4E18F0E911C190181E0281A0B
:1015F00031088B819C810E94FD0E86EA0E94281290
:1016000081E0E981FA818083F70111821082F5017E
:1016100011821082B3018B819C810E94160AF7010E
:1016200011821082C801029623E0880F991F2A9523
:10163000E1F7F5019183808360E771E08B819C8104
:101640000E94160AC4010E94DF11F60182818823DC
:1016500039F040E054E0B40187EF92E00E941F06A9
:101660000E94C2118111FCCF0E94C2118823E1F3B4
:101670000E94C21187FF03C01016110614F10E94C8
:10168000C21184FF03C002151305F4F00E94C211B9
:1016900083FF05C00E94C2118111FCCF18C00E94B7
:1016A000C21182FFA6CF0E94C2118111FCCFA801F6
:1016B0006B817C81C601F2010995882309F499CFD9
:1016C00006C001501109DBCF0F5F1F4FDFCF0F9016
:1016D0000F900F900F90DF91CF911F910F91FF907E
:1016E000EF90DF90CF90BF90AF909F908F907F90C2
:1016F0006F905F904F903F902F900895CF92DF9220
:10170000EF92FF920F931F93CF93DF93EC016B0146
:101710004130510531F042305105E1F0452BC1F423
:101720002CC081E090E00E94B722863018F4082F88
:1017300010E002C003E010E094E2E92E97E0F92EF9
:1017400026E030E042E751E0B601CE010E94C70A30
:1017500080E014C082E090E00E94B72201E010E037
:10176000811102C000E010E08AE1E82E87E0F82E47
:1017700022E030E04BE152E0E7CF81E0DF91CF9112
:101780001F910F91FF90EF90DF90CF900895EF920F
:10179000FF920F931F93CF93DF93FC0184E391E0BB
:1017A000918380837F018FE0E80EF11CEF01619649
:1017B000CF018B5A9F4F0CE211E048ED51E020ED34
:1017C00031E0BE0162507109DB010D931C93188258
:1017D0005C874B873E872D876196C817D90789F7A5
:1017E00088EE91E09383828380EE91E095838483F9
:1017F000178216828CE190E09187808781E0828752
:10180000F486E38684E090E096878587D701ED5AD9
:10181000FF4F82E090E021E030E0AE17BF0771F0AB
:1018200018969C938E9317971A961C921E9219974E
:101830001C963C932E931B975196EFCFDF91CF913F
:101840001F910F91FF90EF9008950F931F93CF93E7
:10185000DF93FC0184E291E091838083108A1786F4
:10186000CF014996DF015B969F01225B3F4F0CE25F
:1018700011E068ED71E040ED51E0ED012297198330
:1018800008831C921C967C936E931B971E965C9308
:101890004E931D975196A217B30779F728EC31E0C4
:1018A0003383228320EC31E0358324831782168230
:1018B0002CE130E03187208712869487838743E0CC
:1018C00050E0568745878FEF9FEF91A380A313A227
:1018D00012A222E030E035A324A392AB81AB14AA7C
:1018E00013AA36AB25ABDF01AE5BBF4F11969C93BD
:1018F0008E93129611961C921E9212962D933C93E3
:10190000928B818B148A138A568B458BDF91CF91F2
:101910001F910F910895CF92DF92EF92FF920F9354
:101920001F93CF93E82FF0E0E954F74FC491E62FCF
:10193000F0E0603330F4E25FF74FE4910E2F10E0F7
:1019400006C0EE0FFF1FE25FF84F0591149168018A
:10195000E12CF12C60E074E284EF90E0A7019601A5
:101960000E94CD22BA01A9014150510961097109B2
:101970004115510581E06807710580F060E970ED5F
:1019800083E090E0A70196010E94CD22BA01A9014F
:10199000415051096109710983E001C081E0C13002
:1019A000C9F0C33031F590919100987F892B8093D5
:1019B00091005093990040939800109390090093E0
:1019C0008F0981E080938E098091710082608093FD
:1019D00071000FC090918100987F892B80938100C6
:1019E000509389004093880080916F0082608093BB
:1019F0006F00CF911F910F91FF90EF90DF90CF90EC
:101A00000895E82FF0E0E954F74FE491E13019F040
:101A1000E33069F0089580916F008D7F80936F00AF
:101A200090919409E0919509F091960908C010925F
:101A30008E0990919109E0919209F091930980812A
:101A4000282F30E0892F90E0809590958223932372
:101A5000808308952F923F924F925F926F927F9270
:101A60008F929F92AF92BF92CF92DF92EF92FF92AE
:101A70000F931F93CF93DF93CDB7DEB728970FB6A1
:101A8000F894DEBF0FBECDBF222E312C9C01220D5B
:101A9000331D37FD30C1803891050CF02CC19B01FE
:101AA000200F311D37FD27C1603471050CF023C1B3
:101AB000DB0177FF04C0AA27BB27A61BB70BA770C3
:101AC000BB279B0177FF02C0295F3F4F13E035958D
:101AD00027951A95E1F777FF08C02150310968E092
:101AE00070E05B01AA1ABB0AD501E02FE695E695E6
:101AF000E695CE2ED12C077019F00FEFC01AD00A40
:101B0000B9017695762F662777956795680F791FC7
:101B10005601A20EB31EBC82AB82412C512CF8E0C0
:101B2000CF2ED12C86010A1B1B0B1A830983AB8095
:101B3000BC802A153B0509F4DEC02830310509F4C4
:101B4000DAC02F3F1FEF31070CF4CAC03B01E0E8B9
:101B50006E0E711C8B010A501A4F1E830D834C01AF
:101B600000E010E0021513050CF0BAC0E0E88E1694
:101B7000910409F4B5C097FCA8C02F3FFFEF3F07C1
:101B800009F4B5C0F801E40DF51DCD80DE80C6185E
:101B9000D708AA24A394E40FF51FEA1013C0E49118
:101BA000C60ED71EF0E05F010A2E02C0AA0CBB1CB5
:101BB0000A94E2F7B886AF82F601B080EF81F8852B
:101BC000EB292BC0E11017C0E491C60ED71EF0E040
:101BD0000A2E02C0EE0FFF1F0A94E2F75F01A094E5
:101BE000B094B886AF82F601A080B12CEF81F88561
:101BF000AE22BF2213C0E491C60ED71EF0E05F01F3
:101C00000A2E02C0AA0CBB1C0A94E2F7B886AF8267
:101C1000F601B080EF81F885EB255F01F601A08227
:101C2000109709F452C02730310509F44EC0F8016D
:101C3000E40DF51DAA24A394EA1011C0E40FF51FCA
:101C4000E491CE2ED12C5601098002C0B594A79400
:101C50000A94E2F7ED81FE81D080AD2835C0CD80B9
:101C6000DE80C618D708E40FF51FE11018C0E49114
:101C7000C60CD71CAE2EB12C098002C0B594A79417
:101C80000A94E2F7F501E095F095F887EF83F60105
:101C9000A080B12CEF81F885AE22BF2214C0E49160
:101CA000C60CD71CAE2EB12CF501098002C0F595EB
:101CB000E7950A94E2F7F887EF83F601B080EF81A9
:101CC000F885EB255F01F601A0820F5F1F4FED81C4
:101CD000FE813196FE83ED83FFEF8F1A9F0A42CF7C
:101CE0002F5F3F4F420C531C60587F4F20CF1097FF
:101CF00009F09DCFEACF28960FB6F894DEBF0FBE4D
:101D0000CDBFDF91CF911F910F91FF90EF90DF90AA
:101D1000CF90BF90AF909F908F907F906F905F908B
:101D20004F903F902F900895AF92BF92CF92DF9245
:101D3000EF920F93CF93DF935C01EA016901611584
:101D4000710559F0E090F60291E0E92608E028E0FC
:101D5000AB01B601CE010E942A0DA114B10449F0D5
:101D6000E090F60208E028E0A501B601CE010E944D
:101D70002A0DDF91CF910F91EF90DF90CF90BF9020
:101D8000AF900895EF92FF920F931F93CF93DF933D
:101D9000EC018A85882351F0288539854E815F8141
:101DA0006C817D818A819B810E94940EE12CF12CB3
:101DB00000E010E08D859E8508171907B8F4EB85C3
:101DC000FC85EE0DFF1D8281882351F0258136812F
:101DD0004381548167857089858596850E94940E1C
:101DE0000F5F1F4F81E1E80EF11CE4CFDF91CF912F
:101DF0001F910F91FF90EF900895449620E0B22F2D
:101E0000B111BFEFFC010024B193B193B193B19331
:101E10000394D1F70895EF92FF920F931F938EE7EB
:101E2000E82E8BE0F82E00E010E023E030E040E701
:101E300052E062E675E082E191E00E94C70A81E02B
:101E400090E00E94B72290E08630910540F4FC01BA
:101E5000E15CFE4F6081062E000C770B02C06CE344
:101E600070E060936805772788EE93E00E94DC1E9F
:101E700060936B0582E090E00E94B72291E08111AF
:101E800001C090E0909315011F910F91FF90EF908A
:101E900008954F925F926F927F928F929F92AF922E
:101EA000BF92CF92DF92EF92FF92CF93DF93EC013C
:101EB0004A015B0181E080939E092E01612C712C07
:101EC00060E072E18AE790E0A30192010E94CD22D6
:101ED00069017A0181E0C81AD108E108F108C1144A
:101EE000D10481E0E806F10488F068E478EE81E04E
:101EF00090E0A30192010E94CD2269017A0181E064
:101F0000C81AD108E108F10883E001C081E090918E
:101F10008100987F982B9093810081149104A104F3
:101F2000B10471F0DE01AA0FBB1FA50194010E944C
:101F3000EC2228EE33E040E050E00E94FF2203C094
:101F40002FEF3FEFA901D0928900C0928800209323
:101F50009A0930939B0940939C0950939D09809165
:101F60006F00826080936F00DF91CF91FF90EF90C0
:101F7000DF90CF90BF90AF909F908F907F906F90A9
:101F80005F904F900895FC018091F502811103C08C
:101F90008FEF9FEF08959FB7F89482E08093E90058
:101FA0002091F20030E01216130614F421E030E024
:101FB0002115310559F0289884E68093F402809128
:101FC000F10080838091F200882319F09FBFC9013E
:101FD00008958BE68093E800F9CF362F90E0FC015E
:101FE000E45BF74F4491FC01E559F74F2491FC0164
:101FF000E856F74F8491882309F451C04423E1F156
:1020000050E0FA013197EF30F105B0F5EA5AFF4F91
:102010000C94F01E909180009F7707C090918000F3
:102020009F7D03C090918000977F9093800024C093
:1020300094B59F7702C094B59F7D94BD1DC09091CB
:1020400090009F7707C0909190009F7D03C0909172
:102050009000977F909390000FC09091C0009F7761
:1020600003C09091C0009F7D9093C00005C09091E7
:10207000C200977F9093C200E82FF0E0EE0FFF1FA1
:10208000E657F74FA591B4918FB7F894EC913111C1
:1020900003C020952E2301C02E2B2C938FBF0895B3
:1020A000CF93DF9390E0FC01E559F74F2491FC01B9
:1020B000E856F74F8491882361F190E0880F991FCB
:1020C000FC01E25CF74FC591D491FC01E657F74F54
:1020D000A591B491611109C09FB7F89488812095AA
:1020E00082238883EC912E230BC0623061F49FB76A
:1020F000F8943881822F809583238883EC912E2B4E
:102100002C939FBF06C08FB7F894E8812E2B2883AD
:102110008FBFDF91CF910895CF93DF93909199096D
:10212000923009F46EC0C82F292F30E0F901E9542C
:10213000F74FD491F901E956F64F80839F5F909352
:10214000990961E00E945010D13019F0D33039F173
:1021500058C01092800010928100809181008860A8
:1021600080938100809181008160809381008C2F19
:1021700090E0FC01E856F74FE491F0E0EE0FFF1F0E
:10218000E657F74F2591349130939609209395099E
:10219000FC01E559F74F84918093940932C0109265
:1021A000900010929100809191008860809391003E
:1021B000809191008160809391008C2F90E0FC01D0
:1021C000E856F74FE491F0E0EE0FFF1FE657F74FA8
:1021D000259134913093930920939209FC01E5599C
:1021E000F74F84918093910980919909882321F078
:1021F0006CE380E00E948B0C80E0DF91CF910C9427
:10220000010DDF91CF9108951F93CF93DF93182F86
:10221000EB0161E00E945010209711F460E004C0CF
:10222000CF3FD10539F461E0812FDF91CF911F912C
:102230000C94ED0FE12FF0E0E45BF74FE4914E2FAB
:1022400050E0FA013197EF30F10508F06CC0EB591E
:10225000FF4F0C94F01E84B5806884BDC7BD68C074
:1022600084B5806284BDC8BD63C0809180008068F1
:1022700080938000D0938900C093880059C08091DA
:102280008000806280938000D0938B00C0938A008E
:102290004FC080918000886080938000D0938D0033
:1022A000C0938C0045C0809190008068809390001E
:1022B000D0939900C09398003BC0809190008062B9
:1022C00080939000D0939B00C0939A0031C080917E
:1022D0009000886080939000D0939D00C0939C00F4
:1022E00027C08091C00080688093C0008091C000AA
:1022F0008F7B8093C000C093CF001AC08091C00034
:1023000080628093C000C093D00012C08091C20050
:1023100088608093C2008091C2008B7F8093C2004E
:10232000C093D20005C0C038D1050CF07CCF76CF69
:10233000DF91CF911F910895EF92FF921F93CF935A
:10234000DF931F92CDB7DEB7162FEE24EA94F12C5F
:10235000B701681B71098AE049830E940411B70123
:10236000611B71098BE00E9404114981B701641B54
:10237000710989E00F90DF91CF911F91FF90EF904D
:102380000C9404118FB12CB193B130E020953095AD
:1023900020743327A90123E0559547952A95E1F745
:1023A000292F30E0209530952071332735952795DA
:1023B00035952795242B8095807F822B0895FC01ED
:1023C00021912EBD9C5F21910DB407FEFDCF2EBD46
:1023D000E817F907C1F70DB407FEFDCF0895E091A6
:1023E000F202F091F30290818091F102892B8083B7
:1023F000E091EF02F091F00290818091EE028095E1
:1024000089238083E091F202F091F3029081809120
:10241000F1028095892380830895E091EF02F09185
:10242000F00290818091EE02892B8083E091F2028C
:10243000F091F30290818091F1028095892380834D
:1024400008958EBD00000DB407FEFDCF8EB5089532
:10245000CF93DF931F92CDB7DEB789830E94EF1130
:1024600089810E9421120F90DF91CF910C940D125F
:102470001F920F920FB60F9211242F933F934F93F9
:102480005F936F937F938F939F93AF93BF93EF93DC
:10249000FF9380918E09882349F080919109E09102
:1024A0009209F09193099081892780838091ED02B0
:1024B000882309F493C080918A0990918B09A09197
:1024C0008C09B0918D09892B8A2B8B2B09F486C03E
:1024D00080918A0990918B09A0918C09B0918D0906
:1024E0000197A109B10980938A0990938B09A09360
:1024F0008C09B0938D09892B8A2B8B2B09F06EC028
:10250000E0918809F0918909BF016F5F7F4F709357
:102510008909609388094491942F907F842F8F704C
:10252000903819F40E94010DEBCF903981F4329666
:10253000F0938909E0938809FB01649190919909CE
:102540008917F0F667FDDCCF0E948B0CD9CF903E47
:1025500029F41092890910928809D2CF903F19F47A
:102560001092ED023BC097FDCBCF3296F0938909D4
:10257000E0938809FB01249130E0342BA0918F096E
:10258000B09190090E9421236C507E4F8F4F9F4F36
:1025900028EE33E040E050E00E94FF2220938A09B9
:1025A00030938B0940938C0950938D0980918A094F
:1025B00090918B09A0918C09B0918D09892B8A2B60
:1025C0008B2B61F481E090E0A0E0B0E080938A0979
:1025D00090938B09A0938C09B0938D09FF91EF9193
:1025E000BF91AF919F918F917F916F915F914F912B
:1025F0003F912F910F900FBE0F901F9018951F9233
:102600000F920FB60F9211242F933F938F939F93A6
:10261000AF93BF93EF93FF9380919E09882309F4B2
:102620004DC080919A0990919B09A0919C09B0910D
:102630009D09892B8A2B8B2B51F180919409E09174
:102640009509F091960990818927808380919A0954
:1026500090919B09A0919C09B0919D0918161906AB
:102660001A061B06A4F580919A0990919B09A091E6
:102670009C09B0919D090197A109B10980939A091C
:1026800090939B09A0939C09B0939D0920C0109240
:102690009E0980916F008D7F80936F0090919409C7
:1026A000E0919509F09196098081282F30E0892FDB
:1026B00090E0809590958223932308C0809194099F
:1026C000E0919509F0919609908189278083FF9187
:1026D000EF91BF91AF919F918F913F912F910F906B
:1026E0000FBE0F901F9018956038710518F5403493
:1026F000510500F5A42FA695A695A695B0E04770C4
:102700005527B695BA2FAA27B795A7956A0F7B1FAD
:10271000FC01E60FF71F81E090E001C0880F4A95A9
:10272000EAF7222319F09489892B03C080959489B4
:102730008923848B08952F923F924F925F926F92DC
:102740007F928F929F92AF92BF92CF92DF92EF9241
:10275000FF920F931F93CF93DF93CDB7DEB72A97E6
:102760000FB6F894DEBF0FBECDBF6A3091F4FC0106
:10277000E85EFB4F408132972081318158E0459FD0
:10278000200D311D11243183208332971182108254
:10279000C1C06D3009F4BEC09A878987885E9B4F9F
:1027A0009C838B83DC012C90E985FA85EA5EFB4FE4
:1027B00060807180E985FA85EC5EFB4FFA83E983DE
:1027C0000081118100381105D4F0AB81BC812C91BE
:1027D000422F50E0E981FA8180819181F6E02F9FBC
:1027E000800D911D1124A981BA818D939C93E98557
:1027F000FA85E75EFB4F208121115EC08BC0B0E4FB
:102800006B16710414F7C801E5E02E9E800D911D32
:10281000112418161906CCF6422C512CC301F8E0ED
:102820002F9E800D911D11241816190674F655E07F
:10283000659F900111243F832E83E12CF12C85E0CC
:10284000E816F10441F0EE81FF81EE0DFF1DE25923
:10285000FD4F349001C0312C630138E0932D91700D
:102860009D834801882D801B8215B0F456018A2D66
:102870008C19821568F42D81A501B40189859A858A
:1028800038870E947413AFEFAA1ABA0A3885EFCFBF
:10289000BFEF8B1A9B0AE6CF36943150C40CD51C7F
:1028A0003111DCCFEFEFEE1AFE0A040D151DF6E034
:1028B000EF16F10421F689CF6AEF64039001659F5A
:1028C000300D112420583F4F281739071CF5A985D2
:1028D000BA85ED91FC9111970190F081E02D6AE0AD
:1028E000CD012A960FB6F894DEBF0FBECDBFDF91A3
:1028F000CF911F910F91FF90EF90DF90CF90BF90FD
:10290000AF909F908F907F906F905F904F903F908F
:102910002F9009942A960FB6F894DEBF0FBECDBF54
:10292000DF91CF911F910F91FF90EF90DF90CF90AB
:10293000BF90AF909F908F907F906F905F904F90DF
:102940003F902F9008958091800981110DC082E001
:1029500080937C0984E080937D0910927F09109216
:102960007E0981E0809380098CE799E008953FB764
:10297000F8948091A4099091A509A091A609B0911D
:10298000A70926B5A89B05C02F3F19F00196A11DE8
:10299000B11D3FBFBA2FA92F982F8827820F911DF5
:1029A000A11DB11DBC01CD0142E0660F771F881F3C
:1029B000991F4A95D1F708958F929F92AF92BF9237
:1029C000CF92DF92EF92FF926B017C010E94B714CD
:1029D0004B015C01C114D104E104F104F1F00E9447
:1029E000B714DC01CB0188199909AA09BB09883EF3
:1029F0009340A105B10570F321E0C21AD108E108A6
:102A0000F10888EE880E83E0981EA11CB11CC11449
:102A1000D104E104F10419F7DDCFFF90EF90DF90CE
:102A2000CF90BF90AF909F908F9008951F920F927C
:102A30000FB60F9211242F933F938F939F93AF93D1
:102A4000BF9380919F099091A009A091A109B09195
:102A5000A2093091A30923E0230F2D3720F401961A
:102A6000A11DB11D05C026E8230F0296A11DB11DB1
:102A70002093A30980939F099093A009A093A10993
:102A8000B093A2098091A4099091A509A091A609EB
:102A9000B091A7090196A11DB11D8093A40990933F
:102AA000A509A093A609B093A709BF91AF919F91E3
:102AB0008F913F912F910F900FBE0F901F901895FF
:102AC000CF93DF93CDB7DEB7C15AD1090FB6F894D3
:102AD000DEBF0FBECDBF789484B5826084BD84B55F
:102AE000816084BD85B5826085BD85B5816085BD09
:102AF00080916E00816080936E00109281008091C1
:102B00008100826080938100809181008160809348
:102B1000810080918000816080938000809191008D
:102B200082608093910080919100816080939100F8
:102B3000809190008160809390008091C1008460BA
:102B40008093C1008091C10082608093C100809118
:102B5000C10081608093C1008091C3008160809337
:102B6000C3008091C00082608093C0008091C20049
:102B700081608093C20080917A00846080937A00A3
:102B800080917A00826080937A0080917A008160DF
:102B900080937A0080917A00806880937A00109206
:102BA000F5021092DC021092DB028091D700816066
:102BB0008093D70080EA8093D80089B5806189BD71
:102BC00089B5826089BD09B400FEFDCF61E070E087
:102BD00080E090E00E94DC148091D8008F7C8061BE
:102BE0008093D8008091E000807F8093E000809106
:102BF000E1008E7E8093E1008DE08093E200559AA3
:102C0000209AEEEFFFE7859194918B3F9C4D19F44C
:102C100081E08093DA021FB7F8948091DE0281117F
:102C200027C0E9EAF8E08491ECE7F8E09491E82F16
:102C3000F0E0EE0FFF1FE25CF74FA591B491EC912D
:102C4000E92321F461E081E10E94ED0F61E081E17F
:102C50000E9450108CB580618CBD8CB580648CBD99
:102C600061E08FE00E94501061E080E10E9450100E
:102C70008091DE028F5F8093DE021FBF05EA11E0C4
:102C8000F80184910E5F1F4F31966491882319F0EB
:102C90000E945010F5CF61E086E00E94ED0F61E0E8
:102CA00070E080E090E00E94DC1460E086E00E942A
:102CB000ED0F6AE070E080E090E00E94DC1461E0DB
:102CC00086E00E94ED0FE4EAF8E0E491F0E0EE0F18
:102CD000FF1FE657F74F859194919093F3028093ED
:102CE000F202E7E7F8E0E491E093F102ECE9F8E0C2
:102CF000E491F0E0EE0FFF1FE657F74F85919491B6
:102D00009093F0028093EF02EFE6F8E0E491E09315
:102D1000EE028CB58C7F8CBD8DB581608DBD0E941F
:102D2000EF1108E911E0F1E0053A1F0739F0F80169
:102D300084910E9421120F5F1F4FF5CF0E940D1248
:102D4000809164008160809364008091640082605F
:102D50008093640080916400806880936400809117
:102D6000640080648093640080916500816080933A
:102D700065000E94C21187FF0EC000E014E080E0F1
:102D80000E94211201501109D1F74FEF6FEF8FEF21
:102D90000E949C11FFCFFEEECF2EDD24DA9418E1C5
:102DA00040E060E0812F8C190E949C1182E695E042
:102DB0000E94FD0EEE24E39400E128E548EE50E089
:102DC000B60184E190E00E942A0D86E795E00E941A
:102DD000DF116BE170E080E090E00E94DC1420EFF6
:102DE000C21206C06AEF70E080E090E00E94DC143E
:102DF0003FEFC31AD30A49E1C416D10489F66EEE37
:102E000072E080E090E00E94DC1440E060E080E04E
:102E10000E949C1185E00E948C108DE00E948C1015
:102E20001092ED0282E090E00E94B722882369F0C0
:102E300080916400877F8093640080916500877F24
:102E40008093650081E08093DD020E94C21184FDC1
:102E500017C0809164008E7F8093640087EC80931C
:102E60007C0080E280937B0062E070E080E090E094
:102E70000E94DC1480917A00806480937A000EC0F6
:102E800081E0809314018FEF9FEF90930403809370
:102E900003030E94C21184FDFCCFDBCF80917A0036
:102EA00086FDFCCF00917800109179000095109577
:102EB0008EE580937C0062E070E080E090E00E940C
:102EC000DC1480917A00806480937A0080917A008B
:102ED00086FDFCCFE0907800F09079000E94B71456
:102EE0009B01AC012095309540955095E094F0946D
:102EF000E09ED001E19EB00DF09EB00D11240E9425
:102F0000EC226B017C010E94B7146C0D7D1D8E1D9F
:102F10009F1D611571058105910511F00E947922AF
:102F2000809164008160809364000E9474226B0130
:102F30007C0180E090E00E94B722A7019601280F53
:102F4000311D411D511DCA01B901232B242B252BF5
:102F500011F00E9479220E94742280E090E00E9489
:102F6000BF2282E695E00E94FD0E85E290E09093FC
:102F7000770980937609ECE1EE2EF12CF092790935
:102F8000E09278096DE571E082E695E00E94160A0C
:102F9000CE0101960E94C70B11E01093F60218862D
:102FA0001F82FA86E9861B87CE0101960E94C20E17
:102FB000CE018C5A9F4F0E94250C88E790E06C96BA
:102FC0009FAF8EAF6C976F961FAF6F9784E090E0C6
:102FD0006E969FAF8EAF6E97CE018C5A9F4F0E9418
:102FE000C20E84E190E06E969FAF8EAF6E97CE01D9
:102FF0008C5A9F4F0E94C20E84E290E06E969FAF63
:103000008EAF6E97CE018C5A9F4F0E94C20E84E302
:1030100090E06E969FAF8EAF6E97CE018C5A9F4F09
:103020000E94C20E1092F60286E795E00E94DF1120
:1030300080911401882341F040E054E066E775E098
:1030400087EF92E00E941F060E94C2118823E1F3DD
:103050000E94C2118111FCCFCE018C5A9F4F0E9459
:10306000C905CE0101960E94A8050E940B0F82E6B9
:1030700095E00E94FD0E86E795E00E94DF118091A9
:103080001401882341F040E054E066E775E087EFE3
:1030900092E00E941F0681E08093F60286EA0E9479
:1030A00028122FB7F89480919F099091A009A091C0
:1030B000A109B091A2092FBF20917405222391F09C
:1030C00020916C05382F321B3093750520916905CE
:1030D00030916A052F5F3F4F30936A052093690551
:1030E00010927405409170055091710560917205C0
:1030F0007091730584179507A607B7077CF4481BE2
:10310000423008F43EC583B7817F83BF83B78160B7
:1031100083BF889583B78E7F83BF33C520916B05AE
:10312000AC01BD01420F511D611D711D4093700521
:1031300050937105609372057093730580936C05CD
:1031400090936D05A0936E05B0936F0581E0809319
:1031500074058091E602882309F454C00E94C211CC
:1031600082FFFBC30E94C21182FDFCCF0E940B0FA5
:103170001092E60210921605109215058CE190E06F
:10318000909318058093170581E080931905E091CD
:103190001A05F0911B05329620911C0530911D05F2
:1031A00080E090E08217930721F0108201967196DB
:1031B000F9CFE7E4F3E04CE150E017821682518743
:1031C000408712866585768520E030E080E090E0DB
:1031D0008617970751F0A385B485A20FB31F1296E7
:1031E0001C9201962F5E3F4FF3CFE45BFF4F85E0CB
:1031F000EF30F80711F78CE291E09093050180938E
:103200000401ABC380911505909116051816190697
:1032100024F40E94C21185FDBCC4809115059091D3
:1032200016058837910524F40E94C21186FDBBC49F
:1032300080911705909118051816190624F40E941C
:10324000C21187FDBAC48091170590911805C897DF
:1032500024F40E94C21184FDBAC4612C712C212C6B
:10326000312C80911C0590911D052816390608F017
:1032700057C0C0901A05D0901B05C60CD71CD601AC
:1032800012968C91882309F444C0C6010E942B0A2F
:10329000F60182818823E9F177E4A72E73E0B72E47
:1032A000D5011A968C911A97882309F49AC414961A
:1032B000ED90FC90159718960D911C911997169604
:1032C0002D913C911797F60147855089658176814C
:1032D000838194810E94540A882309F482C4D50111
:1032E0001A961C92F60112828091040190910501B8
:1032F0000A96909305018093040180911501811134
:1033000008C042E350E060E070E080E391E10E9499
:10331000490FFFEF2F1A3F0A21E1620E711CA1CF66
:103320000E94C21183FF38C08091E4029091E502AF
:10333000009761F580911A0590911B0502964091C6
:103340001C0550911D0520E030E024173507D9F009
:10335000FC0132974196DC0151976C91611110C0CC
:1033600081E08283809115059091160508969483DB
:10337000838380911705909118059683858303C0F8
:103380002F5F3F4FE2CF85E090E001C0019790931F
:10339000E5028093E40204C01092E5021092E40278
:1033A00051E5252E53E0352E67E4A62E63E0B62EB8
:1033B00065014101C056DF4F1882C05AD040D40188
:1033C0008C9181116FC060E170E080E090E00E941C
:1033D0004307672B682B692B09F064C08091E202D8
:1033E0009091E302009709F058C028E730E0F60119
:1033F0003783268368E370E080E090E00E94430713
:10340000D60119967C936E93189721E0F4012083DE
:1034100063E070E080E090E00E9443076E5F7F4FC2
:10342000D60156967C936E93559750961C921E9299
:103430001F9758961C921E92579754961C921E9254
:10344000539765E070E080E090E00E9443076115CB
:10345000710531F42DEE36E0F601308B278710C070
:103460006130710519F4E4E0F7E005C062307105E0
:1034700039F4EEE8F5E0D6015096FC93EE931F97F1
:1034800066E070E080E090E00E9443076D5F7F4F50
:103490007093E3026093E20205C001979093E30208
:1034A0008093E2028091690590916A05D601559654
:1034B0006D917C9156970E94C81E892B09F5F601E3
:1034C0002681378181899289820F931F9783868312
:1034D0002085318583899489820F931F9187808706
:1034E0008789908D0196908F878B0784F089E02DD6
:1034F000309731F00995D60154969C938E9353974B
:10350000F6018681978107968738910530F480858A
:10351000918507968734910510F0D4011C92E12C17
:10352000F12C00E010E0D6011D968D919C911E9724
:103530000817190768F4F601838594858E0D9F1D81
:103540000E942B0A0F5F1F4FF1E1EF0EF11CEBCF32
:1035500000E010E0E12CF12CF60185859685E81657
:10356000F906E8F5F4018081882399F1D6011B96CC
:10357000ED91FC911C97E00FF11F8281811129C010
:103580006AE570E080E090E00E944307672B682BBB
:10359000692BF9F4D6011B96ED91FC911C97E00F75
:1035A000F11FB1E0B283D60116968D919C911797C9
:1035B00008979483838318968D919C91199796838D
:1035C000858355968D919C91569701979487838713
:1035D00006C0BFEFEB1AFB0A0F5E1F4FBDCFD40131
:1035E0008C918823E9F0F601E480F580008511854F
:1035F000268137814091130550911405609117057C
:103600007091180580911505909116050E94540A35
:10361000882331F0F1E0C056DF4FF883C05AD04024
:10362000612C712C412C512CD6011D968D919C91B1
:103630001E974816590668F5D6011B96ED91FC9128
:103640001C97E60DF71D82818823E1F0E784F0885E
:103650000581168123813481409113055091140511
:1036600060911705709118058091150590911605C8
:103670000E94540A882331F0B1E0C056DF4FB8836E
:10368000C05AD040EFEF4E1A5E0AF1E16F0E711C86
:10369000CBCFBCE48B0E911CECE4CE0ED11CFFE032
:1036A000CF16F5E0DF0609F08ACEC056DF4F28813D
:1036B000C05AD0402223A9F18091150181111CC06C
:1036C000009102011091030142E350E060E070E0DC
:1036D000C8010E94490F000F111F013137E2130783
:1036E0002CF4109303010093020106C08CE494E0D3
:1036F00090930301809302018091E102811116C031
:1037000087EA0E94281281E08093E10280910401FF
:1037100090910501845691099093050180930401CD
:1037200005C01092E10286EA0E9428120E94C2118E
:1037300082FFCDC00091DF021091E0020F3F4FEFFA
:10374000140781F480910401909105018233910561
:103750000CF4C3C0C297909305018093040184E1E7
:1037600090E0B7C0101611060CF0B7C0809115019B
:10377000811128C0E0900001F090010142E350E087
:1037800060E070E0C7010E94490FB701FF0C880B91
:10379000990B0E94A01F26E636E646EA5FE30E94E8
:1037A000F61E0E94681F6C3251E075072CF0709372
:1037B00001016093000106C088E998E0909301013F
:1037C00080930001015011091093E0020093DF0281
:1037D000D1018C91882331F1F50186819781209167
:1037E00015053091160528173907E4F400911705DF
:1037F00010911805448155816085718538EBE32E61
:1038000031E0F32E9C010E94540A882359F0D10123
:103810001C9280910401909105010A9690930501F4
:1038200080930401C12CD12C812C912CD5011D96A3
:103830008D919C911E9788169906E0F5D5011B96EF
:10384000ED91FC911C97EC0DFD1D8281882359F1AF
:103850008381948120911505309116052817390729
:1038600014F5009117051091180547855089658159
:10387000768128EBE22E21E0F22E9C010E94540A70
:10388000882389F0D5011B96ED91FC911C97EC0DD6
:10389000FD1D128280910401909105010196909383
:1038A000050180930401BFEF8B1A9B0AE1E1CE0E64
:1038B000D11CBCCFBCE42B0E311CECE4AE0EB11C11
:1038C000FFE0AF16F5E0BF0609F082CF06C08FEF2C
:1038D0009FEF9093E0028093DF020091040110912A
:1038E000050117FF0FC080911501811108C048EE36
:1038F00053E060E070E088EB91E00E94490F81E0C6
:103900008093E6028091DF029091E002181619067A
:1039100044F44091690550916A05417055274195DD
:1039200003C017FF03C040E060E014C0023311057C
:103930001CF440E060E005C00436110524F440E0CA
:103940006FEF8FEF08C00639110514F440E001C095
:103950004FEF6FEF80E00E949C1182E695E00E949D
:10396000FD0E8091DF029091E0021816190664F1B5
:103970004AE0BE016F5F7F4F809104019091050185
:103980000E9482221092770910927609109279098A
:1039900010927809BE016F5F7F4F82E695E00E942A
:1039A000160AC0906905D0906A0583E0D694C79442
:1039B0008A95E1F7C094D0942FE1C222DD24F090E3
:1039C000F60200E010E05DC020911505309116056B
:1039D000A0901705B090180543E0A40EB11C690132
:1039E00058E0C50ED11C88E7821B4601880E911C49
:1039F000D7FE10C0C12CD12C0DC0C816D90694F426
:103A000021E0A501B60182E695E00E9474138FEFD4
:103A1000C81AD80AC401A1E88A16910474F380E890
:103A200090E0EBCF2091150530911605A090170579
:103A3000B0901805B4E0AB0EB11C6901E8E0CE0E01
:103A4000D11C88E7821B4601880E911CD7FE11C04D
:103A5000C12CD12C0EC0C816D9060CF089CF21E09C
:103A6000A501B60182E695E00E947413FFEFCF1A1C
:103A7000DF0AC40121E8821691046CF380E890E02B
:103A8000EACF2F2DA801B60182E695E00E947413BB
:103A90000F5F1F4F00341105A1F71091F602460188
:103AA00030E2830E911CA12CB12C212FA501B40171
:103AB00082E695E00E9474134FEFA41AB40A50E412
:103AC000A516B10491F71091F602460180E4880E24
:103AD000911CA12CB12C212FA501B40182E695E007
:103AE0000E9474139FEFA91AB90AA0E4AA16B104A0
:103AF00091F7F090F602B0E6CB0ED11C00E010E09A
:103B00002F2DA801B60182E695E00E9474130F5F85
:103B10001F4F00341105A1F78FE095E00E94C20EFF
:103B200007E413E0C8010E94C20E045B1F4FE5E0EA
:103B30000F301E07B9F78091E602882391F088E2E2
:103B400090E090937709809376098CE190E09093D0
:103B500079098093780967E671E082E695E00E9432
:103B6000160A86E795E00E94DF11809114018823F0
:103B700041F040E054E066E775E087EF92E00E9494
:103B80001F0680E090E0892B09F48BCA0E94000098
:103B900088CA809115059091160501979093160596
:103BA000809315053ACB80911505909116050196E5
:103BB00090931605809315053BCB80911705909146
:103BC0001805019790931805809317053CCB8091B9
:103BD0001705909118050196909318058093170585
:103BE0003CCB412C512CC056DF4F19821882C05A51
:103BF000D040D5011D968D919C911E97C056DF4FE8
:103C0000E881F981C05AD040E817F90708F044C0AC
:103C1000D5011B968D909C901C97840C951CF401EB
:103C20008281882309F442C0E784F08805811681E7
:103C300023813481D6011F964D915C915097159642
:103C40006D917C91169713968D919C9114970E947B
:103C5000540A882359F1D40112961C92F60112825B
:103C60008091040190910501019690930501809344
:103C7000040180E0C056DF4FE881F981C05AD0408E
:103C80003196C056DF4FF983E883C05AD040F1E146
:103C90004F0E511C8111ADCF2CE4A20EB11C3FE0A0
:103CA000A31635E0B30609F0FBCA33CB81E0E2CFBF
:103CB000CF93DF93CFE0D5E0CC54D109E881F981EF
:103CC0000190F081E02DCE01099583E0C734D8073B
:103CD00099F78FE095E0DF91CF910C94A805CF93F1
:103CE000DF931092FA021092F90288EE93E0A0E0BE
:103CF000B0E08093FB029093FC02A093FD02B0938E
:103D0000FE0289E491E09093F8028093F7028FEF2E
:103D10009FEF909304038093030310926505109224
:103D2000640589E591E090936305809362058CE3D7
:103D30008093680580E180936B0510926A0510926C
:103D4000690510927005109271051092720510921B
:103D500073051092740510927709109276091092EB
:103D600079091092780981E080937A098FE095E0D3
:103D70000E94C70BC7E4D3E0CE010E94250CC45BB0
:103D8000DF4F85E0CF30D807B9F7DF91CF910895A5
:103D9000AA1BBB1B51E107C0AA1FBB1FA617B70771
:103DA00010F0A61BB70B881F991F5A95A9F780958D
:103DB0009095BC01CD01089597FB072E16F4009451
:103DC00007D077FD09D00E94C81E07FC05D03EF43D
:103DD000909581959F4F0895709561957F4F0895B7
:103DE000EE0FFF1F0590F491E02D09940E940A1F29
:103DF0000C94F21F0E94EB1F58F00E94E41F40F049
:103E000029F45F3F29F00C94DB1F51110C942620FC
:103E10000C94E11F0E94032068F39923B1F355230A
:103E200091F3951B550BBB27AA27621773078407CD
:103E300038F09F5F5F4F220F331F441FAA1FA9F363
:103E400035D00E2E3AF0E0E832D091505040E69551
:103E5000001CCAF72BD0FE2F29D0660F771F881FB2
:103E6000BB1F261737074807AB07B0E809F0BB0BA5
:103E7000802DBF01FF2793585F4F3AF09E3F5105B9
:103E800078F00C94DB1F0C9426205F3FE4F3983EFF
:103E9000D4F3869577956795B795F7959F5FC9F7A2
:103EA000880F911D9695879597F90895E1E0660F23
:103EB000771F881FBB1F621773078407BA0720F09C
:103EC000621B730B840BBA0BEE1F88F7E095089505
:103ED0000E946F1F6894B1110C94262008950E94CF
:103EE0000B2088F09F5798F0B92F9927B751B0F061
:103EF000E1F0660F771F881F991F1AF0BA95C9F76E
:103F000014C0B13091F00E942520B1E008950C94C6
:103F10002520672F782F8827B85F39F0B93FCCF379
:103F2000869577956795B395D9F73EF490958095EA
:103F3000709561957F4F8F4F9F4F0895E89409C00A
:103F400097FB3EF490958095709561957F4F8F4FCC
:103F50009F4F9923A9F0F92F96E9BB279395F695E2
:103F6000879577956795B795F111F8CFFAF4BB0F60
:103F700011F460FF1BC06F5F7F4F8F4F9F4F16C0C4
:103F8000882311F096E911C0772321F09EE8872F4E
:103F9000762F05C0662371F096E8862F70E060E00A
:103FA0002AF09A95660F771F881FDAF7880F969583
:103FB000879597F9089597F99F6780E870E060E02A
:103FC00008959FEF80EC089500240A9416161706B2
:103FD00018060906089500240A94121613061406FA
:103FE00005060895092E0394000C11F4882352F05D
:103FF000BB0F40F4BF2B11F460FF04C06F5F7F4F15
:104000008F4F9F4F089557FD9058440F551F59F0FB
:104010005F3F71F04795880F97FB991F61F09F3FB5
:1040200079F087950895121613061406551FF2CFDE
:104030004695F1DF08C0161617061806991FF1CF2E
:1040400086957105610508940895E894BB27662755
:104050007727CB0197F908950E943F200C94F21F17
:104060000E94E41F38F00E94EB1F20F0952311F00E
:104070000C94DB1F0C94E11F11240C9426200E9449
:10408000032070F3959FC1F3950F50E0551F629F79
:10409000F001729FBB27F00DB11D639FAA27F00DA1
:1040A000B11DAA1F649F6627B00DA11D661F829FC8
:1040B0002227B00DA11D621F739FB00DA11D621FAD
:1040C000839FA00D611D221F749F3327A00D611DCA
:1040D000231F849F600D211D822F762F6A2F1124AC
:1040E0009F5750409AF0F1F088234AF0EE0FFF1FDF
:1040F000BB1F661F771F881F91505040A9F79E3F36
:10410000510580F00C94DB1F0C9426205F3FE4F3F4
:10411000983ED4F3869577956795B795F795E7958B
:104120009F5FC1F7FE2B880F911D9695879597F994
:10413000089519F416F40C94E11F0C94DF200E94EA
:104140000B20B8F39923C9F3B6F39F57550B87FF9C
:104150000E94ED200024A0E640EA90018058569588
:10416000979528F4805C660F771F881F20F026172C
:104170003707480730F4621B730B840B2029312961
:104180004A2BA69517940794202531254A2758F7DE
:10419000660F771F881F20F026173707480730F46F
:1041A000620B730B840B200D311D411DA09581F70F
:1041B000B901842F9158880F9695879508959F3F50
:1041C00031F0915020F4879577956795B795880FD2
:1041D000911D9695879597F9089591505040660FD7
:1041E000771F881FD2F70895CF93DF938230910510
:1041F00010F482E090E0E091AA09F091AB0920E090
:1042000030E0C0E0D0E0309711F140815181481793
:104210005907C0F04817590761F4828193812097AC
:1042200019F09B838A832BC09093AB098093AA09D2
:1042300026C02115310519F04217530718F49A01C9
:10424000BE01DF01EF010280F381E02DDCCF2115FB
:10425000310509F1281B390B2430310590F41296F1
:104260008D919C9113976115710521F0FB0193834A
:10427000828304C09093AB098093AA09FD01329612
:1042800044C0FD01E20FF31F819391932250310945
:104290002D933C933AC02091A8093091A909232B72
:1042A00041F420911801309119013093A90920930C
:1042B000A80920911601309117012115310541F40B
:1042C0002DB73EB740911A0150911B01241B350BAD
:1042D000E091A809F091A909E217F307A0F42E1BB9
:1042E0003F0B2817390778F0AC014E5F5F4F24175A
:1042F000350748F04E0F5F1F5093A9094093A80956
:104300008193919302C0E0E0F0E0CF01DF91CF9183
:1043100008950F931F93CF93DF93009709F48CC0F8
:10432000FC013297138212820091AA091091AB0905
:104330000115110581F420813181820F931F209195
:10434000A8093091A9092817390779F5F093A90927
:10435000E093A80971C0D80140E050E0AE17BF0754
:1043600050F412962D913C911397AD012115310512
:1043700009F1D901F3CF9D01DA01338322836081F2
:104380007181860F971F8217930769F4EC012881CA
:104390003981260F371F2E5F3F4F318320838A815B
:1043A0009B8193838283452B29F4F093AB09E0939F
:1043B000AA0942C01396FC93EE931297ED0149911E
:1043C00059919E01240F351FE217F30771F4808184
:1043D0009181840F951F029611969C938E938281F2
:1043E000938113969C938E931297E0E0F0E0D801AE
:1043F00012968D919C911397009719F0F8018C01FA
:10440000F6CF8D919C9198012E5F3F4F820F931FA5
:104410002091A8093091A9092817390769F4309724
:1044200029F41092AB091092AA0902C013821282D9
:104430001093A9090093A809DF91CF911F910F91C3
:10444000089581E090E0F8940C9430238F929F922D
:10445000AF92BF92CF92DF92EF92FF92CF93DF9312
:10446000EC01688179818A819B81611571058105E3
:10447000910521F464E279ED8BE597E02DE133EFCE
:1044800041E050E00E94CD2249015A019B01AC015C
:10449000A7EAB1E40E94EC226B017C01ACEEB4EF20
:1044A000A50194010E94FA22DC01CB018C0D9D1D17
:1044B000AE1DBF1DB7FF03C00197A109B048888397
:1044C0009983AA83BB83BC01CD019F77DF91CF91F4
:1044D000FF90EF90DF90CF90BF90AF909F908F9024
:1044E00008950E94262208958CE191E00E942622E0
:1044F000089560931C0170931D0180931E01909399
:104500001F010895BB274A3031F4992322F4BDE2FC
:10451000909581959F4F0C948E22BB27FB015527C8
:10452000AA27880F991FAA1FA41710F0A41B839510
:104530005051B9F7A05DAA3308F0A95DA193009787
:1045400079F7B111B1931192CB010C94A722DC0140
:10455000FC01672F71917723E1F7329704C07C91BA
:104560006D9370836291AE17BF07C8F30895F999F0
:10457000FECF92BD81BDF89A992780B50895262F68
:10458000F999FECF1FBA92BD81BD20BD0FB6F89438
:10459000FA9AF99A0FBE01960895052E97FB1EF41C
:1045A00000940E94E42257FD07D00E94FF2207FCDE
:1045B00003D04EF40C94E42250954095309521950B
:1045C0003F4F4F4F5F4F089590958095709561953F
:1045D0007F4F8F4F9F4F08950E942123A59F900DDD
:1045E000B49F900DA49F800D911D11240895B7FFD5
:1045F0000C94EC220E94EC22821B930B0895A1E202
:104600001A2EAA1BBB1BFD010DC0AA1FBB1FEE1F4C
:10461000FF1FA217B307E407F50720F0A21BB30B97
:10462000E40BF50B661F771F881F991F1A9469F713
:1046300060957095809590959B01AC01BD01CF016F
:104640000895A29FB001B39FC001A39F700D811D6B
:104650001124911DB29F700D811D1124911D08958B
:1046600014E0CEE5D4E004C0FE010E94F01E2196C5
:0A467000CF35D107C9F7F894FFCF4A
:10467A0098084C042C01FFFFFFFF00E10000000036
:10468A0000003C0000000000AC09800001000000AE
:10469A0000000000C905390700000000EA052B07E1
:1046AA0000000000A8052F0700C180810000000F4C
:1046BA001E2D3C5A780000000053051F067405ABF6
:1046CA0006C9066905000000009B132805417264AB
:1046DA007553484D55500047414D454F5645520078
:1046EA003E0073656C656374207370656564202091
:1046FA0020202020202020202020202020202020B0
:10470A0020202020202020202020202020736C6FB1
:10471A007720202020202020202020202020202038
:10472A00202065617379202020202020202020204D
:10473A00202020202020206C6569737572656C79B1
:10474A002020202020202020202020206E6F726D23
:10475A00616C2020202020202020202020202020C2
:10476A002066617374202020202020202020202011
:10477A00202020202020696E73616E652020202071
:10478A00202020202020202020200073656C6563D3
:10479A007420736F756E64732020202020202020DF
:1047AA0020202020202020202020202020202020FF
:1047BA00202020202020736F756E64206F6E2020C9
:1047CA002020202020202020202020736F756E6456
:1047DA00206F666620202020202020202020200014
:1047EA006F7074696F6E7320202020202020202093
:1047FA0020202020202020202020202020202020AF
:10480A002020202020202020202020626567696E39
:10481A00202020202020202020202020202020208E
:10482A0073656C656374207370656564202020204D
:10483A0020202020206D75746520617564696F20C1
:0A484A002020202020202020200044
:00000001FF
